:020000040800F2
:10000000D83B002015040008010100080301000886
:100010000F0100081B010008270100080000000074
:100020000000000000000000000000003301000894
:1000300035010008000000002B040008370100080B
:100040002F0400082F0400082F0400083B010008BB
:100050002F0400082F040008390100082F040008AD
:100060002F0400082F0400082F0400082F040008A4
:100070002F0400082F0400082F0400082F04000894
:100080002F0400082F0400082F0400082F04000884
:100090002F0400082F0400082F0400082F04000874
:1000A0002F0400082F0400082F0400082F04000864
:1000B000292000082F0400082F0400082F0400083E
:1000C0002F0400082F0400082F0400082F04000844
:1000D0002F040008FB1F00080F6D00082F04000804
:1000E0002F0400082F0400082F040008DFF80CD0AC
:1000F00007F07EFC004800475B2A0008D83B002040
:1001000070470EA11C4801F054FF00BFFEE71BA181
:10011000194801F04EFF00BFFEE727A1164801F085
:1001200048FF00BFFEE733A1134801F042FF00BFC4
:10013000FEE7704770477047704770470D0A2A2ADC
:100140002A2A2A2A2A2A2A2A2A2A2A2A2A2A2A2A0F
:100150002A486172644661756C745F48616E646CB4
:1001600065722A2A2A2A2A2A2A2A2A2A2A2A2A2A6C
:100170002A2A2A2A2A0D0A00003801400D0A2A2AB2
:100180002A2A2A2A2A2A2A2A2A2A2A2A2A2A2A2ACF
:100190002A4D656D4D616E6167655F48616E646C87
:1001A00065722A2A2A2A2A2A2A2A2A2A2A2A2A2A2C
:1001B0002A2A2A2A2A0D0A000D0A2A2A2A2A2A2A43
:1001C0002A2A2A2A2A2A2A2A2A2A2A2A2A427573E3
:1001D0004661756C745F48616E646C65722A2A2A88
:1001E0002A2A2A2A2A2A2A2A2A2A2A2A2A2A2A2A6F
:1001F0000D0A00000D0A2A2A2A2A2A2A2A2A2A2A2D
:100200002A2A2A2A2A2A2A2A2A55736167654661D8
:10021000756C745F48616E646C65722A2A2A2A2A9A
:100220002A2A2A2A2A2A2A2A2A2A2A2A2A2A0D0A6B
:10023000000000000CB50020019000906C480068A0
:1002400040F480306A49086000BF6948006800F4E3
:10025000003000900198401C0190009818B9019856
:10026000B0F5A06FF1D16248006800F4003010B121
:100270000120009001E0002000900098012843D167
:100280005C48006840F010005A4908600846006861
:1002900020F0030008600846006840F00200086093
:1002A00053484068524948600846406848600846DC
:1002B000406840F4806048600846406820F47C1044
:1002C00048600846406840F4E81048600846006806
:1002D00040F08070086000BF4548006800F0007082
:1002E0000028F9D04248406820F0030040494860A7
:1002F0000846406840F00200486000BF3C48406843
:1003000000F00C000828F9D10CBD10B5FFF792FFE2
:1003100010BD10B53648006840F00100344908604F
:10032000084640683449084031494860084600683A
:10033000324908402E4908600846006820F48020B1
:1003400008600846406820F4FE0048604FF41F0033
:100350008860FFF7DAFF4FF000602949086010BDA0
:1003600010B5002100200022214B5B6803F00C0136
:1003700021B1042906D0082928D107E0214B224CBD
:10038000236027E01F4B204C236023E0184B5B6861
:1003900003F47010164B5B6803F48032022303EB06
:1003A000904022B9194B4343174C23600DE0104B8A
:1003B0005B6803F4003323B1144B4343124C2360B6
:1003C00003E0104B4343104C236003E00D4B0E4CF5
:1003D000236000BF00BF064B5B68C3F303130C4CE4
:1003E000E15C094B1B68CB40074C236010BD00004B
:1003F00000100240002002400000FFF8FFFFF6FE60
:1004000008ED00E000127A000000002000093D0025
:10041000040000200648804706480047FEE7FEE744
:10042000FEE7FEE7FEE7FEE7FEE7FEE7FEE7FEE7A4
:1004300013030008ED00000831490143314A1160FF
:10044000704770B5002100230F22C47804B32D4CEF
:10045000246804F4E064C4F5E064210AC1F10403F3
:10046000CA40447804FA03F1847814402143090116
:10047000254C0678A155047804F01F050124AC40F2
:1004800005786D11AD0005F1E025C5F8004109E0E2
:10049000047804F01F050124AC401C4D0678761149
:1004A00045F8264070BD1A4A0A400243154B1B1FEF
:1004B0001A60704739B1134A121D12680243114B7A
:1004C0001B1D1A6006E00F4A121D126882430D4B75
:1004D0001B1D1A607047042808D14FF0E0210969FC
:1004E00041F004014FF0E022116107E04FF0E021FC
:1004F000096921F004014FF0E0221161704700000A
:100500000000FA050CED00E000E400E080E100E00E
:1005100080FFFF1F10B50446CC48844208D101215A
:10052000042000F02DFB0021042000F029FB46E010
:10053000C748844208D10121082000F021FB002196
:10054000082000F01DFB3AE0C248844208D1012196
:10055000102000F015FB0021102000F011FB2EE010
:10056000BD48844208D10121202000F009FB002170
:10057000202000F005FB22E0B848844208D1012188
:10058000402000F0FDFA0021402000F0F9FA16E0CA
:10059000B348844208D10121802000F0F1FA002103
:1005A000802000F0EDFA0AE0AE48844207D1012134
:1005B000801500F0E5FA0021A01500F0E1FA10BD69
:1005C00010B50121084600F0DBFA0021012000F0FF
:1005D000D7FA10BD2DE9F041024600250026002083
:1005E00000230024002791F803C00CF00F0591F8B8
:1005F00003C00CF0100CBCF1000F03D091F802C046
:100600004CEA050591F800C0BCF1000F31D0146828
:1006100000202BE04FF0010C0CFA00F3B1F800C001
:100620000CEA03069E4220D183004FF00F0C0CFA17
:1006300003F7BC4305FA03FC4CEA040491F803C039
:10064000BCF1280F06D14FF0010C0CFA00FCC2F8E7
:1006500014C00AE091F803C0BCF1480F05D14FF077
:10066000010C0CFA00FCC2F810C0401C0828D1D3C1
:100670001460B1F800C0BCF1FF0F34DD54680020F5
:100680002EE000F1080C4FF0010808FA0CF3B1F865
:1006900000C00CEA03069E4221D183004FF00F0CEC
:1006A0000CFA03F7BC4305FA03FC4CEA040491F886
:1006B00003C0BCF1280F05D100F1080C08FA0CF8B2
:1006C000C2F8148091F803C0BCF1480F07D100F1C3
:1006D000080C4FF0010808FA0CF8C2F81080401C12
:1006E0000828CED35460BDE8F0814FF6FF71018039
:1006F000022181700421C170704702460020936876
:100700000B400BB1012000E00020704701468868D3
:1007100080B2704702460020D3680B400BB1012025
:1007200000E0002070470146C86880B27047016150
:100730007047416170470AB1016100E04161704753
:10074000C16070474FF480320A43826181618261E7
:1007500082698269704702460020434B18684FF651
:100760008073184040EA021008433F4B18607047FE
:100770003E49C8617047F0B50A46002300240021B5
:10078000002500F00046B6F1004F02D1364EF16967
:1007900001E0354E7168C0F3034583B200F44016A2
:1007A000B6F5401F08D121F070612F4E766826F013
:1007B00070662D4F7E6012E000F48016B6F5801F43
:1007C00006D1032606FA05F4A14341F0706106E064
:1007D000460D360103FA06F6B14341F0706122B1CD
:1007E000460D360103FA06F6314300F00046B6F135
:1007F000004F02D11C4EF16101E01B4E7160F0BD53
:1008000030B500228B071C0F0F2303FA04F2164B9E
:1008100008338C1053F824309343134C08348D1054
:1008200044F8253023468C1053F824308C07240FCD
:1008300000FA04F423430C4C08348D1044F825309E
:1008400030BD0A49DC3108607047000000080140F3
:10085000000C01400010014000140140001801404C
:10086000001C014000200140000001400000204227
:10087000DF48006840F00100DD4908600846406834
:10088000DC490840DA49486008460068DA4908400F
:10089000D74908600846006820F4802008600846B0
:1008A000406820F4FE0048604FF41F0088607047E5
:1008B000CF49096821F48031CD4A11601146096899
:1008C00021F480211160B0F5803F03D0B0F5802F76
:1008D0000ED106E0C649096841F48031C44A11606E
:1008E00007E0C349096841F4A021C14A116000E052
:1008F00000BF00BF704710B5014600220023002052
:100900004A11012A02D1BA4C236806E0022A02D118
:10091000B74C236A01E0B64C636A01F01F02012460
:1009200094401C400CB1012000E0002010BD38B5FF
:10093000002000900024002500BF3120FFF7DBFFDE
:1009400005460098401C00900098B0F5A06F01D0BB
:10095000002DF2D03120FFF7CEFF08B1012400E0D6
:100960000024204638BD01460020A14A106820F02E
:10097000F80040EAC10010607047A0490860704765
:10098000024600209A4B586820F47C1042EA01038A
:100990001843974B5860704798490866704701465E
:1009A0000020934A506820F00300084350607047CD
:1009B0008F48406800F00C007047014600208C4AC8
:1009C000506820F0F0000843506070470146002056
:1009D000874A506820F4E060084350607047014641
:1009E0000020834A506820F4605040EAC100506003
:1009F000704729B17E4A527A02437D4B5A7204E015
:100A00007B4A527A82437A4B5A7270477B49D8317B
:100A10000860704701460020754A506820F4404045
:100A20000843506070470021714A20321170704AAB
:100A300082F82010012802D004280AD104E0012104
:100A40006B4A2032117005E00521694A203211708D
:100A500000E000BF00BF7047694908607047644903
:100A6000096A0143624A1162704765494439086066
:100A7000704730B500210022002400235C4D6D68D2
:100A800005F00C0121B1042905D0082923D105E086
:100A90005C4D056022E05B4D05601FE0544D6D68C4
:100AA00005F47012524D6D6805F48034022505EB93
:100AB00092421CB9544D554305600BE04C4D6D6896
:100AC00005F400351DB1504D5543056002E04D4D14
:100AD0005543056002E04B4D056000BF00BF444D2B
:100AE0006D6805F0F0010909484D6B5C0568DD4053
:100AF00045603F4D6D6805F4E061090A434D6B5C4C
:100B00004568DD4085603A4D6D6805F46051C90A5D
:100B10003E4D6B5C4568DD40C560354D6D6805F444
:100B20004041890B3A4D6B5CC568B5FBF3F5056137
:100B300030BD29B12E4A526902432D4B5A6104E05F
:100B40002B4A526982432A4B5A61704729B1284A7D
:100B500092690243264B9A6104E0254A92698243D6
:100B6000234B9A61704729B1214AD2690243204B35
:100B7000DA6104E01E4AD26982431D4BDA61704794
:100B800029B11B4AD2680243194BDA6004E0184AC3
:100B9000D2688243164BDA60704729B1144A126951
:100BA0000243134B1A6104E0114A12698243104B4D
:100BB0001A61704712494039086070470F49C8648C
:100BC00070470B49C87170470948406A40F080700F
:100BD00007494862704701460020054A92680A406A
:100BE0000AB1012000E00020704701498872704777
:100BF000001002400000FFF8FFFFF6FE0000424236
:100C00008004424200127A0000093D0014000020D6
:100C10002400002010B50446FB48844209D101217C
:100C20008803FFF7ADFF00214FF48040FFF7A8FFD6
:100C300032E0F648844209D101214804FFF7ADFFB4
:100C400000214FF40030FFF7A8FF25E0F048844270
:100C500009D101218804FFF7A0FF00214FF4802073
:100C6000FFF79BFF18E0EB48844209D10121C8043B
:100C7000FFF793FF00214FF40020FFF78EFF0BE0FA
:100C8000E548844208D101210805FFF786FF0021CD
:100C90004FF48010FFF781FF10BD2DE9F04786B0BB
:100CA00005460E460024A24600BFA1460027B08993
:100CB00000B100BF2F462C8A4CF6FF700440F0882C
:100CC00004432C82AC894EF6F3100440B08831897D
:100CD0000843718908430443AC81AC8A4FF6FF4056
:100CE0000440B0890443AC8201A8FFF7C2FEC648A5
:100CF000874202D1DDF810A001E0DDF80CA0A88940
:100D000000F4004040B10AEBCA0000EB0A10316861
:100D10004900B0FBF1F807E00AEBCA0000EB0A104B
:100D200031688900B0FBF1F86420B8FBF0F00401F1
:100D30002009642101FB1089A88900F4004040B11A
:100D4000322000EBC900B0FBF1F000F007000443D3
:100D500008E0322000EB09106421B0FBF1F000F054
:100D60000F0004432C8106B0BDE8F0874FF4165104
:100D7000016000218180C18001810C21418100211D
:100D80008181704710B502460020108A4FF2FF03A0
:100D900018400B884C8823438C882343CC882343FA
:100DA0001843108210BD0021018041808180C180E4
:100DB000704721B1828942F40052828104E0828925
:100DC0004DF6FF731A4082817047F0B50346002448
:100DD00000260025002040F66A17B94200D100BF66
:100DE0001846C1F3421401F01F06012707FA06F561
:100DF000012C01D10C3004E0022C01D1103000E0B4
:100E000014301AB107682F43076002E00768AF4348
:100E10000760F0BD1AB1838A0B43838202E0838AA4
:100E20008B4383827047028A4FF6F0731A40028226
:100E3000028A0A430282704782894FF2FF731A4086
:100E4000828182890A438281704721B1828942F07E
:100E50000202828104E082894FF6FD731A4082818A
:100E60007047028A4FF6DF731A400282028A0A43F1
:100E70000282704721B1028A42F48042028204E079
:100E8000028A4BF6FF731A4002827047C1F30802D0
:100E90008280704701468888C0F3080070478189C6
:100EA00041F0010181817047028BD2B20283028B33
:100EB00042EA012202837047028B02F47F420283DE
:100EC000028B0A430283704721B1828A42F02002DA
:100ED000828204E0828A4FF6DF731A408282704772
:100EE00021B1828A42F01002828204E0828A4FF6A7
:100EF000EF731A408282704721B1828A42F0080261
:100F0000828204E0828A4FF6F7731A408282704729
:100F100021B1828942F40042828103E08289C2F3D6
:100F20000E028281704721B1828A42F4006282827D
:100F300004E0828A4FF2FF731A4082827047828AED
:100F40004FF6FB731A408282828A0A43828270477C
:100F500021B1828A42F00202828204E0828A4FF644
:100F6000FD731A408282704702460020B1F5007F6F
:100F700000D100BF13880B400BB1012000E000201E
:100F8000704701F40072B2F5007F00D100BFCA4380
:100F90000280704770B5024600240023002500201F
:100FA00040F66A16B14200D100BFC1F3421501F00C
:100FB0001F03012606FA03F3012D02D1968933405F
:100FC00006E0022D02D1168A334001E0968A3340B2
:100FD0000C12012606FA04F41688344013B10CB141
:100FE000012000E0002070BD10B50022002340F673
:100FF0006A14A14200D100BF0A1201249440A3B296
:10100000DC43048010BD0000003801400044004073
:1010100000480040004C00400050004010B504461D
:10102000FE48844208D10121C014FFF7A9FD002128
:10103000E014FFF7A5FDC4E0B4F1804F08D1012111
:101040000846FFF7AAFD00210120FFF7A6FDB8E042
:10105000F348844208D101210220FFF79EFD0021C0
:101060000220FFF79AFDACE0EE48844208D101214E
:101070000420FFF792FD00210420FFF78EFDA0E081
:10108000E948844208D101210820FFF786FD0021AC
:101090000820FFF782FD94E0E448844208D1012152
:1010A0001020FFF77AFD00211020FFF776FD88E081
:1010B000DF48844208D101212020FFF76EFD002186
:1010C0002020FFF76AFD7CE0DA48844208D1012144
:1010D0004014FFF755FD00216014FFF751FD70E04B
:1010E000D548844209D10121C804FFF749FD0021F8
:1010F0004FF40020FFF744FD63E0D048844209D15B
:1011000001210805FFF73CFD00214FF48010FFF797
:1011100037FD56E0CA48844209D101214805FFF74E
:101120002FFD00214FF40010FFF72AFD49E0C548CC
:10113000844208D101214020FFF72FFD00214020EB
:10114000FFF72BFD3DE0C048844208D101218020FB
:10115000FFF723FD00218020FFF71FFD31E0BB4892
:10116000844208D101218015FFF717FD0021A01549
:10117000FFF713FD25E0B648844209D10121080498
:10118000FFF7FEFC00214FF48030FFF7F9FC18E078
:10119000B048844209D101214804FFF7F1FC002145
:1011A0004FF40030FFF7ECFC0BE0AB48844208D171
:1011B00001218804FFF7E4FC00214FF48020FFF7B1
:1011C000DFFC10BD00220288944B98420ED0994B50
:1011D00098420BD0B0F1804F08D0914B984205D087
:1011E000904B984202D0904B984204D14FF68F73A7
:1011F0001A404B881A438D4B984207D08C4B98422B
:1012000004D04FF6FF431A40CB881A4302808B88E4
:1012100083850B880385814B98420BD0854B984280
:1012200008D08B4B984205D08A4B984202D08A4B0B
:10123000984201D10B7A038601238382704770B5EF
:10124000002400220023058C4FF6FE7635400584ED
:10125000028C8388048B4FF68F752C40B51E2C4072
:101260000D882C43751E2A400D892A434D882A4338
:101270006A4DA8420BD06F4DA84208D0744DA842C9
:1012800005D0744DA84202D0734DA84213D14FF639
:10129000F7752A404D892A434FF6FB752A408D8801
:1012A0002A434FF6FF652B404FF6FF552B408D89A3
:1012B0002B43CD892B4383800483CD88858602848C
:1012C00070BD70B5002400220023058C4FF6EF7628
:1012D00035400584028C8388048B48F6FF752C40CA
:1012E0004FF6FF452C400D884FF6FF7606EA0525A0
:1012F0002C434FF6DF752A400D8906EA05152A436F
:101300004D8806EA05152A43444DA84202D0494DAE
:10131000A8421DD14FF67F752A404D894FF6FF76C2
:1013200006EA05152A434FF6BF752A408D8806EA5E
:1013300005152A434FF6FF352B404FF2FF752B4022
:101340008D8906EA85052B43CD8906EA85052B4361
:1013500083800483CD880587028470BD70B5002426
:1013600000220023058C4FF6FF6635400584028C71
:101370008388848B4FF68F752C404FF6FC752C407C
:101380000D882C434FF6FF552A400D894FF6FF7606
:1013900006EA05252A434D8806EA05252A431F4DFE
:1013A000A84202D0234DA8421DD14FF2FF752A401A
:1013B0004D894FF6FF7606EA05252A434FF6FF359D
:1013C0002A408D8806EA05252A434EF6FF752B40F4
:1013D0004DF6FF752B408D8906EA05152B43CD8907
:1013E00006EA05152B4383808483CD888587028494
:1013F00070BD70B5002200230024058C4EF6FF76E8
:1014000035400584038C8488828B48F6FF752A401A
:101410004FF6FF452A400D8820E00000002C0140D7
:101420000004004000080040000C00400010004094
:101430000014004000340140004C014000500140C5
:101440000054014000180040001C004000200040F3
:101450000040014000440140004801404FF6FF7643
:1014600006EA05252A434DF6FF752B400D8906EA4D
:1014700005352B434D8806EA05352B43FA4DA84226
:1014800002D0FA4DA84208D14BF6FF752C408D8949
:101490004FF6FF7606EA85152C4384808283CD883B
:1014A000A0F84050038470BD828B4FF2FF331A4086
:1014B0008283828B4FF6FF7303EA01231A438283F0
:1014C0007047F0B50C461546002200210026078C17
:1014D0004EF6FF7C07EA0C070784828B018C4FF6DF
:1014E000FF7707EA043640F6FF473A404FF6FF77AA
:1014F00007EA05273A434FF6FF7707EA03373A43EF
:10150000D94FB8420ED0D94FB8420BD0B0F1804F6E
:1015100008D0D74FB84205D0D64FB84202D0D64FE8
:10152000B84206D14DF6FF77394046F4805739432B
:1015300005E047F6FF57394044F48057394382832A
:101540000184F0BD828B4FF6F3731A408283828B45
:101550000A4382837047F0B50C46154600220021ED
:101560000026078C4FF6FF6C07EA0C070784828B76
:10157000018C4FF6FF7707EA04264FF60C773A40C6
:101580004FF6FF7707EA03172F433A43B64FB842A7
:101590000ED0B64FB8420BD0B0F1804F08D0B44F48
:1015A000B84205D0B34FB84202D0B34FB84206D1CB
:1015B0004FF6FF57394046F48077394305E04FF244
:1015C000FF57394044F48077394382830184F0BD6A
:1015D000028B4FF2FF331A400283028B4FF6FF73E8
:1015E00003EA01231A4302837047F0B50C461546FF
:1015F000002200210026078C4FF6EF7C07EA0C073B
:101600000784028B018C4FF6FF7707EA041640F639
:10161000FF473A404FF6FF7707EA03373A434FF662
:10162000FF7707EA05273A438F4FB8420ED08F4F16
:10163000B8420BD0B0F1804F08D08D4FB84205D0E2
:101640008C4FB84202D08C4FB84206D14FF6DF77AC
:10165000394046F01007394305E04FF65F773940CF
:1016600044F01007394302830184F0BD028B4FF62A
:10167000F3731A400283028B0A4302837047F0B56A
:101680000C46154600220021068C4FF6FE773E40A0
:101690000684028B018C4FF60C7632407E1C06EAE3
:1016A00003162E433243704EB0420ED06F4EB042FE
:1016B0000BD0B0F1804F08D06D4EB04205D06D4ECA
:1016C000B04202D06C4EB04206D14FF6FD763140AA
:1016D00044F00106314305E04FF6F576314044F021
:1016E0000106314302830184F0BD70B505460C4606
:1016F0005D4885420ED05D4885420BD0B5F1804FE4
:1017000008D05B48854205D05A48854202D05A48E5
:10171000854200D100E000BF208850B92389A2880B
:1017200061882846FFF7ABFFE1882846FFF79EFF58
:1017300025E0208804280AD12389A28861882846C8
:10174000FFF753FFE1882846FFF742FF17E02088A4
:1017500008280AD12389A28861882846FFF7FBFE62
:10176000E1882846FFF7EEFE09E02389A288618818
:101770002846FFF7A6FEE1882846FFF795FE70BDD4
:101780002DE9F04105460C4600260127608808B97E
:10179000022600E00026A088012801D1022700E0EF
:1017A00001272088A0B92389A28861882846FFF7ED
:1017B00066FFE1882846FFF759FF23893A463146FC
:1017C0002846FFF712FFE1882846FFF701FF13E0E4
:1017D0002389A28861882846FFF707FFE188284609
:1017E000FFF7F6FE23893A4631462846FFF747FFC2
:1017F000E1882846FFF73AFFBDE8F0810A884B8868
:101800001A438B881A43CB881A430B891A434B8996
:101810001A438B891A43A0F8442070474FF6FF7192
:10182000818000210180C1804180017270470021C8
:10183000018041808180C180018141818181C1819C
:101840007047002101804180012181800021C180F9
:10185000018170470021018041808180C180018128
:101860004181818170470000002C0140003401401B
:101870000004004000080040000C004021B1028834
:1018800042F00102028004E002884FF6FE731A4023
:101890000280704731B1B0F8442042F40042A0F811
:1018A000442005E0B0F84420C2F30E02A0F8442022
:1018B00070471AB183890B43838102E083898B438C
:1018C000838170478182704741EA0203A0F8483063
:1018D00070471AB183890B43838102E083898B436C
:1018E0008381704701894FF6F8721140018170477A
:1018F0000A46002101894FF68F7319401143018177
:10190000704730B504460D4629462046FFF7F0FFE4
:10191000208940F00700208130BD2DE9F0410446C8
:101920000D4616461F46602D06D13B460122314624
:101930002046FFF75AFE05E03B460122314620468D
:10194000FFF79DFE29462046FFF7D2FF208940F091
:1019500007002081BDE8F08130B50C4600210189E7
:10196000C9B24FF6FF7505EA032515432543294300
:10197000018130BD2DE9F04105460E4617469846D7
:10198000002443463A4631462846FFF7E5FF2C89B6
:101990004FF6F870044044F007044FF68F7004408F
:1019A00044F070042C81BDE8F081F0B504460D468A
:1019B00016461F463B46324629462046FFF7CCFFD7
:1019C000208940F480402081F0BD018582827047EB
:1019D0000A46002101884FF68F7319401143018098
:1019E0007047F0B50C4615461E4600210022002324
:1019F0000189028B038C4FF6F877394021434FF66B
:101A0000FC473A4040F201173A434FF6DD773B403E
:101A10004FF6FF7707EA06172F433B430181028306
:101A20000384F0BD0A460021018B4FF68F731940E5
:101A30001143018370470A460021018B48F6FF736A
:101A400019404FF6FF7303EA0223194301837047DD
:101A50000A460021818B4FF68F7319401143818311
:101A600070470A460021818B48F6FF7319404FF6F4
:101A7000FF7303EA022319438183704721B102886F
:101A800042F08002028004E002884FF67F731A4021
:101A90000280704721B1828842F00402828004E013
:101AA00082884FF6FB731A408280704721B182888A
:101AB00042F00802828004E082884FF6F7731A40F1
:101AC0008280704721B1828842F00102828004E066
:101AD00082884FF6FE731A40828070470A460021C2
:101AE000018B4FF6F77319401143018370470A4683
:101AF0000021018B4FF2FF7319404FF6FF7303EA89
:101B000002231943018370470A460021818B4FF657
:101B1000F77319401143818370470A460021818B76
:101B20004FF2FF7319404FF6FF7303EA0223194384
:101B3000818370470A460021018B4FF6FB731940E1
:101B40001143018370470A460021018B4FF6FF3392
:101B500019404FF6FF7303EA0223194301837047CC
:101B60000A460021818B4FF6FB7319401143818394
:101B700070470A460021818B4FF6FF3319404FF61C
:101B8000FF7303EA02231943818370470A46002149
:101B9000018B4FF67F7319401143018370470A464A
:101BA0000021018BC1F30E014FF6FF7303EA0223FC
:101BB0001943018370470A460021818B4FF67F73DA
:101BC00019401143818370470A460021818BC1F37C
:101BD0000E014FF6FF7303EA022319438183704716
:101BE0000A460021018C4FF6FD7319401143018410
:101BF00070470A460021018C4FF6F77319401143D4
:101C0000018470470A460021018C4FF6DF731940AA
:101C10004FF6FF7303EA02131943018470470A4623
:101C20000021018C4FF67F7319404FF6FF7303EAD2
:101C300002131943018470470A460021018C4FF6B4
:101C4000FF5319404FF6FF7303EA0223194301843F
:101C500070470A460021018C4FF2FF7319404FF67E
:101C6000FF7303EA02231943018470470A460021E7
:101C7000018C4DF6FF7319404FF6FF7303EA0233F0
:101C800019430184704730B5002301248C40A3B26E
:101C9000048C9C430484048C02FA01F5ADB22C43FD
:101CA000048430BD30B5002304248C40A3B2048CDE
:101CB0009C430484048C02FA01F5ADB22C430484E5
:101CC00030BD70B5034600200024184618300125A9
:101CD0008D40ACB21D8CA5431D8409B1082909D1E2
:101CE00000EB6100056825F0700505600568154387
:101CF00005600EE00D1FC5F34E052844056825F468
:101D0000E045056005684FF6FF7606EA0226354392
:101D1000056070BD21B1028842F00202028004E039
:101D200002884FF6FD731A400280704721B1028885
:101D300042F00402028004E002884FF6FB731A406E
:101D40000280704721B1828842F08002828004E0E4
:101D500082884FF67F731A408280704702884FF660
:101D6000F7731A40028002880A4302807047828813
:101D70004FF68F731A40828082880A4382807047B0
:101D800002894FF6F8731A40028102890A430281E0
:101D9000704702894FF67F731A40028102890A4315
:101DA00002817047818470478185704781867047C2
:101DB0000187704781877047A0F8401070470288FC
:101DC0004FF6FF431A40028002880A4302807047A0
:101DD0000146888E70470146088F70470146888FFC
:101DE00070470146B1F8400070470146888C704743
:101DF0000146088D704702460020138A0B400BB144
:101E0000012000E000207047CA430282704730B5CD
:101E10000246002000230024158A05EA0103958963
:101E200005EA010413B10CB1012000E0002030BD2F
:101E3000CA4302827047000010B586B004460121F3
:101E40000420FEF783FE01218803FEF77FFE1820A1
:101E50008DF817004FF40070ADF8140003208DF8D2
:101E6000160005A96B48FEF7B5FB04208DF8170096
:101E70000002ADF8140003208DF8160005A965488E
:101E8000FEF7A8FB01940020ADF810000C20ADF87F
:101E90000E000020ADF80C00ADF80A00ADF8080007
:101EA00001A95D48FEF7F9FE01215B48FEF781FFBD
:101EB000012240F225515848FEF787FF25208DF872
:101EC000000001208DF8030000208DF801000220A1
:101ED0008DF802006846FEF7B4FA06B010BD10B5E2
:101EE00086B0044601210420FEF730FE012148049B
:101EF000FEF739FE18208DF817000420ADF8140005
:101F000003208DF8160005A94248FEF763FB042064
:101F10008DF817000820ADF8140003208DF8160086
:101F200005A93C48FEF756FB01940020ADF81000CF
:101F30000C20ADF80E000020ADF80C00ADF80A0042
:101F4000ADF8080001A93548FEF7A7FE0121334886
:101F5000FEF72FFF012240F225513048FEF735FFF2
:101F600026208DF8000001208DF8030000208DF858
:101F700001008DF802006846FEF763FA06B010BD56
:101F80002DE9F04107460C46154600260DE014F8F1
:101F9000011B3846FEF77AFF00BF40213846FEF7A6
:101FA000E3FF0028F9D0701C86B2AE42EFDBBDE83B
:101FB000F0810FB430B5CBB0054601AC50A800900D
:101FC0004FF4947101A8009B4F9A05F093FF0020F5
:101FD00000900BE014F8011B2846FEF757FF00BFE6
:101FE00040212846FEF7C0FF0028F9D020780028BD
:101FF000F0D14BB030BC5DF814FB10B540F2255168
:102000000548FEF7C7FF18B120210348FEF7B9FFC6
:1020100010BD0000000801400038014000440040AD
:1020200010B504F031FF10BD10B501218807FFF78E
:10203000EEFE01283ED1C2480068401CC04908603D
:1020400008460068BF490968884211D24FF4807180
:10205000BD48FEF75FFB012804D10102BA48FEF734
:1020600068FB27E04FF48071B748FEF760FB21E082
:10207000B3480068B349096888420BD3B048006888
:10208000B2490968884205D24FF48071AE48FEF724
:1020900050FB0FE0AA480068AC490968884209D3A0
:1020A00000214FF08040FFF7E9FB0020A8490870AD
:1020B000A349086001218807FFF7BAFE10BD10B5DB
:1020C00040F251109F4908604000A049086001207B
:1020D0009F49087001218007FFF7D0FB00BF9C4893
:1020E00000780128FBD010BD10B52A209549086062
:1020F00040F29D1095490860012095490870012122
:102100008007FFF7BBFB00BF914800780028FBD198
:1021100000214FF08040FFF7B1FB10BD10B52A2021
:1021200088490860AA208949086001208849087008
:1021300001218007FFF7A2FB00BF85480078002837
:10214000FBD110BD10B52A207E49086054207F497C
:10215000086001207E49087001218007FFF78EFB8F
:1021600000BF7B4800780028FBD110BD70B5044645
:1021700000250BE004F0800010B9FFF7E3FF01E059
:10218000FFF7CCFF6006040E681CC5B2082DF1DB1A
:1021900070BD70B50546FFF792FF002404E0285D8E
:1021A000FFF7E4FF601CC4B2062CF8DBFFF79CFFCE
:1021B000FFF785FF002404E0285DFFF7D7FF601CD0
:1021C000C4B2062CF8DBFFF78FFF70BD2DE9FC478A
:1021D000074688469146A9F111000E2824D2DFE86F
:1021E00000F007090B0D0F11131517191B1D1F21E7
:1021F00000241BE0102419E0302417E0202415E00F
:10220000602413E0702411E050240FE040240DE01E
:10221000C0240BE0D02409E0902407E0802405E0EE
:10222000A02403E0B02401E0E02400BF00BF052F9C
:102230000ED2DFE807F0030507090B00A02508E030
:10224000802506E0402504E0202502E0002500E08E
:1022500000BF00BFB8F1050F0ED2DFE808F003059C
:1022600007090B00082608E0002606E0042604E023
:102270000C2602E0042600E000BF00BF354880784D
:1022800000F00F003349887008468078204388703A
:102290000846807800F0F300887008468078304364
:1022A00088700846407800F01F0048700846407863
:1022B00028434870084600788DF8000008460078EA
:1022C000C043C0B28DF80100084640788DF8020086
:1022D00008464078C043C0B28DF8030008468078B5
:1022E0008DF8040008468078C043C0B28DF8050020
:1022F0006846FFF74EFFBDE8FC871CB5164800781E
:102300008DF8000014480078C043C0B28DF8010079
:10231000114840788DF802000F484078C043C0B2A1
:102320008DF803000C4880788DF804000A48807806
:10233000C043C0B28DF805006846FFF72AFF1CBDF8
:102340002C00002030000020000801403400002054
:10235000280000203B0000203E00002008B501219D
:102360000820FEF7F3FB14208DF8030003208DF8FE
:1023700002000220ADF800006946FA48FEF72AF98B
:102380000120ADF800006946F648FEF723F9012266
:102390000221F448FEF7CFF901221146F148FEF779
:1023A000CAF908BD10B501221146EE48FEF7C3F97F
:1023B00001220221EB48FEF7BEF900220121E94883
:1023C000FEF7B9F900220221E648FEF7B4F910BD84
:1023D00010B500220121E348FEF7ADF901220221E8
:1023E000E048FEF7A8F901221146DE48FEF7A3F9FE
:1023F00010BD70B50546002417E08020204128401C
:1024000008B1012000E0002002460121D548FEF776
:1024100092F901220221D348FEF78DF90022022110
:10242000D048FEF788F9601CC4B2082CE5DB012215
:102430000221CC48FEF77FF900220221C948FEF7AD
:102440007AF970BD10B50446FFF7ACFF7820FFF7AE
:10245000D0FF0020FFF7CDFF2046FFF7CAFFFFF7B0
:10246000B7FF10BD10B50446FFF79CFF7820FFF7BB
:10247000C0FF4020FFF7BDFF2046FFF7BAFFFFF780
:10248000A7FF10BD70B505460C4645F0B000FFF73C
:10249000D9FF102141EA1410FFF7D4FF04F00F0018
:1024A000FFF7D0FF70BD70B500240EE0002120467C
:1024B000FFF7E8FF002504E00020FFF7D3FF681CCA
:1024C000C5B2802DF8DB601CC4B2082CEEDB70BDF9
:1024D0002DE9F04105460E461746721ED206110E32
:1024E0006A1E5206100EFFF7CDFF002409E0A7F187
:1024F00020019D4A02EB0111085DFFF7B3FF601C4C
:10250000C4B2082CF3DB721ED206110E6A1E012320
:1025100003EB4202D0B2FFF7B5FF00240BE0A7F1B6
:102520002001914A02EB011204F10801505CFFF70F
:1025300099FF601CC4B2082CF1DBBDE8F0812DE9E5
:10254000F04107460E461546002407E02A5D301983
:10255000C1B23846FFF7BCFF601CC4B2285D00283A
:10256000F4D1BDE8F08110B50246012000E05043EF
:102570000B1EA1F10101FAD110BD2DE9F0478046F3
:102580000E4617461D46002415E0281B411E0A2052
:10259000FFF7E9FFB7FBF0F00A21B0FBF1F201FB16
:1025A000120000F130093019C1B24A464046FFF727
:1025B0008FFF601CC4B2AC42E7DBBDE8F0872DE9B9
:1025C000F0478146884615461E46002D06DB2B2225
:1025D00041464846FFF77CFF2F4605E02D22414645
:1025E0004846FFF775FF6F42002417E0301B411E7D
:1025F0000A20FFF7B8FFB7FBF0F00A21B0FBF1F2B9
:1026000001FB120000F1300A08EB0400401CC1B2CB
:1026100052464846FFF75CFF601CC4B2B442E5DB9B
:10262000BDE8F0872DE9F04781460E4690461F46EB
:1026300000241DE0381B411E1020FFF794FFB8FB5B
:10264000F0F000F00F050A2D08DA05F13000C2B2F3
:102650003019C1B24846FFF73BFF07E005F13700EC
:10266000C2B23019C1B24846FFF732FF601CC4B293
:10267000BC42DFDBBDE8F0872DE9F04780460E461F
:1026800017461D46002412E0281B411E0220FFF7BA
:102690006AFFB7FBF0F000F0010000F130093019DB
:1026A000C1B24A464046FFF713FF601CC4B2AC42B9
:1026B000EADBBDE8F08770B5002406E0002500E005
:1026C0006D1CB5F57A7FFBD3641CB4F57A7FF5D326
:1026D000FFF744FEAE20FFF7B5FED520FFF7B2FEB0
:1026E0008020FFF7AFFEA820FFF7ACFE3F20FFF7EA
:1026F000A9FED320FFF7A6FE0020FFF7A3FE40208F
:10270000FFF7A0FEA120FFF79DFEC820FFF79AFE6D
:10271000DA20FFF797FE1220FFF794FE8120FFF7E3
:1027200091FECF20FFF78EFED920FFF78BFEF12020
:10273000FFF788FEDB20FFF785FE3020FFF782FEE3
:10274000A420FFF77FFEA620FFF77CFE8D20FFF779
:1027500079FE1420FFF776FEAF20FFF773FEFFF738
:10276000A2FE70BD000C0140F894000810B50446AC
:10277000052C22D2DFE804F003090F151B0010A27C
:102780000C210220FFF7DBFE17E00FA20C21022034
:10279000FFF7D5FE11E00EA20C210220FFF7CFFEBD
:1027A0000BE00DA20C210220FFF7C9FE00BF0CA216
:1027B0000C210220FFF7C3FE00BF00BF10BD0000C8
:1027C000436F6F6C000000004465687500000000F6
:1027D0004175746F00000000486F74200000000015
:1027E00057696E640000000010B56648006820F06C
:1027F0000F00644908600846006840F00300086064
:10280000002201215F48FDF796FF142000F0D3F865
:10281000012211465B48FDF78EFF1E2000F0B4F840
:1028200010BD10B500245748006820F00F0055492E
:1028300008600846006840F00800086004E0601C7A
:10284000C4B2012000F0A0F801214E48FDF755FF69
:1028500008B1642CF3DB642C01DB012010BD0024E3
:1028600004E0601CC4B2012000F08EF8012145484C
:10287000FDF743FF08B9642CF3DB642C01DB012076
:10288000ECE70020EAE710B5002404E0601CC4B2C5
:10289000012000F079F801213A48FDF72EFF08B138
:1028A000642CF3DB002404E0601CC4B2012000F0BF
:1028B0006BF801213348FDF720FF08B9642CF3DBE6
:1028C000282000F061F801212E48FDF716FF08B11D
:1028D000012010BD0020FCE770B50024002506E0B3
:1028E0006006040EFFF7CFFF0443681CC5B2082D35
:1028F000F6DB204670BD7CB505460E46FFF774FF3B
:10290000FFF78FFFF8B9002405E0FFF7E5FF0DF8AA
:102910000400601CC4B2052CF7DB9DF800009DF894
:10292000011008449DF8021008449DF80310084463
:102930009DF80410884208D19DF8000030709DF881
:102940000200287001E001207CBD0020FCE708B5F2
:1029500001210420FEF7FAF80120ADF80000102054
:102960008DF8030003208DF8020069460548FDF745
:1029700031FE01210348FDF7DAFEFFF735FFFFF7CF
:1029800050FF08BD0008014000EBC001C9004FF036
:10299000E0225161002191610521116100BF4FF0DA
:1029A000E021096901F480310029F8D004214FF0B9
:1029B000E0221161704700B5034603E04FF47A70DE
:1029C000FFF7E2FF181EA3F10103F7D100BD10B518
:1029D000044603E04FF47A70FFF7EDFF201EA4F1E8
:1029E0000104F7D110BD000010B5FFF764FE76A218
:1029F00001210846FFF7A3FD78A201210320FFF77C
:102A00009EFD7AA201210420FFF799FD4FF4A060FA
:102A1000FDF712FDFFF704FB4FF4E130FFF70CFA6E
:102A20004FF4E130FFF75BFA0220FFF7D0FFFFF72A
:102A30008EFF70A17448FFF7BCFAFFF734FD73A254
:102A400001210846FFF77BFD68A201210420FFF762
:102A500076FD0220FFF7BBFF10BD00250024FFF725
:102A6000C3FF04F0CFF86EA16748FFF7A2FA73A284
:102A700001210220FFF763FD5CA201210420FFF782
:102A80005EFD03E04FF4FA70FFF795FF70A172A0AE
:102A900004F059F80028F5D17BA15B48FFF789FACB
:102AA00081A201210320FFF74AFD50A20121042049
:102AB000FFF745FD4FF47A70FFF77DFFFFF7F3FC5A
:102AC0004AA201210420FFF73AFD03E04FF4FA7017
:102AD000FFF771FF00F081FA0028F7D100F0B8FD90
:102AE000764B1A78764B1978764B1878FFF76EFB91
:102AF00075A201210846FFF722FD75A201210220DF
:102B0000FFF71DFD74A20A210120FFF718FD73A233
:102B10000A210220FFF713FD71A201210320FFF714
:102B20000EFD32A201210420FFF709FD01236548B3
:102B30000C2102681846FFF720FD61490878FFF76D
:102B400015FE02235D48082102680320FFF715FDEA
:102B500026A201210420FFF7F2FC33E0624963481A
:102B6000FFF7C9FE604803786048027860A12648F4
:102B7000FFF71FFA03235D48027806210120FFF7C3
:102B8000FCFC03235848027806210220FFF7F5FCDD
:102B900016A201210420FFF7D2FC0220FFF717FF45
:102BA000681C80B20546322804DB00F0EFFC0025EB
:102BB00003F0AAFF002004F003F8044614B12046F5
:102BC00000F071FDCAE700004861726477617265C8
:102BD00020496E69742E2E2E00000000506C656135
:102BE00073652077616974696E6700007665723A73
:102BF000312E300020486172647761726520696E01
:102C00006974204F4B0D0A0000380140486172641E
:102C10007761726520496E6974204F4B0000000097
:102C2000436F6E6E656374204D5154547320536529
:102C3000727665722E2E2E0D0A000000436F6E6EA6
:102C4000656374696E67204D515454730000000031
:102C5000434F4E4E4543540041542B434950535427
:102C60004152543D22544350222C226D717474738E
:102C70002E6865636C6F7564732E636F6D222C31E3
:102C80003838330D0A000000436F6E6E65637420A0
:102C90004D515454205365727665722053756363A9
:102CA0006573730D0A0000004D5154547320436F37
:102CB0006E6E656374204F4B0000000048000020DA
:102CC0004C0000205000002074656D703A00000038
:102CD00068756D693A000000563A00004D3A0000F0
:102CE00054656D5365743A0045000020440000208F
:102CF00074656D703A25642C68756D693A25640DAC
:102D00000A000000F0B58BB00546002600242846D6
:102D100004F080F9C7B20DB11C2F02DA01200BB00C
:102D2000F0BD06E0A85D01A988550020A855701CDB
:102D3000C6B2BE42F6DB002001A988550026002459
:102D400055E001A8805D2B2810D008DC202814D085
:102D500023282ED0252825D026283FD130E02F2823
:102D600012D03D2833D03F2838D114E02819F8A1DB
:102D700004F01CF9E01CC4B236E02819F5A104F0F7
:102D800015F9E01CC4B22FE02819F3A104F00EF9E4
:102D9000E01CC4B228E02819F0A104F007F9E01CF7
:102DA000C4B221E02819EEA104F000F9E01CC4B27D
:102DB0001AE02819EBA104F0F9F8E01CC4B213E002
:102DC0002819E9A104F0F2F8E01CC4B20CE02819BB
:102DD000E6A104F0EBF8E01CC4B205E001A8805DB8
:102DE0002855601CC4B200BF00BF701CC6B2BE42F2
:102DF000A7DB0020285500BF91E72DE9F04FC9B0AF
:102E000005460C4616461F460DF5A47898E8000FB7
:102E10000020489055B14CB1D548864206D32FB119
:102E2000B9F1000F02D0BAF1780F03DA012049B0EE
:102E3000BDE8F08F402118A804F0ADF8384604F042
:102E4000E9F805903B4648AA4021009018A801F0F7
:102E500021F9482106A804F09EF8BBF1000F09D023
:102E6000C4A03346C5A248218DE8310006A805F06C
:102E700015F809E0BFA03346C6A248218DE811012C
:102E8000039506A805F00AF8402128A804F083F865
:102E900006A804F0BFF8059018A804F0BBF8049049
:102EA00028A8009006AA18A8DDE9041300F0ACFFDA
:102EB00000204890402138A804F06DF828A804F0BC
:102EC000A9F8059028AB48AA4021009038A801F045
:102ED00041F838A8FFF716FFBBF1000F0CD038A857
:102EE000A4A12B46B3A2CDE90046CDE9021051467C
:102EF000484604F0D3FF0CE038A89EA12B46BB4AFD
:102F0000CDE901860094CDE903105146484604F00E
:102F1000C5FF00208BE72DE9F041ACB001270D255E
:102F20000026002405F1F00005F09EFD06461EB9BE
:102F300038462CB0BDE8F08103E04FF4FA70FFF79B
:102F40003AFDABA1ACA003F0FEFD0028F5D10120B5
:102F5000902108AA0023CDE90032CDE90210B0A3E8
:102F6000BB4ABCA1BEA0FFF748FFC0A10D20CDE920
:102F7000000105F1F00108ABBD4A304604F08EFFB8
:102F8000304604F047F81FFA80F84146304603F017
:102F900000FEFA2003F014FE044624B1B5A1204639
:102FA00004F010F804467CB100200390B44803A953
:102FB00004ABB44ACDE90010B349204604F05EF8F2
:102FC000042800D1002700BF304605F025FDAFA141
:102FD000AFA003F0B8FD3846ABE730B5B3B0002082
:102FE0002F903090319032900125A02107AA9FA305
:102FF000CDE90032CDE9021089A3954A95A198A0A8
:10300000FFF7FBFE07A893A398A2A5A10090B048E4
:10301000FEF7CFFF2FA8002102910391CDE9041004
:10302000084601214FF47A7390A2CDE9001007A958
:1030300088A001F090F9002842D1309A91B22F98DF
:1030400003F0A7FDFA2003F0BBFD0446002C33D0AB
:10305000204601F04BF902282ED1204601F0E0FA7B
:10306000062823D2DFE800F003090E13181D99A1EA
:103070009748FEF79EFF00251DE09CA19448FEF7AF
:1030800098FF18E0A3A19248FEF793FF13E0ACA1CC
:103090008F48FEF78EFF0EE0B3A18D48FEF789FF43
:1030A00009E0BEA18A48FEF784FF04E0C9A1884870
:1030B000FEF77FFF00BF00BF2FA801F0CFF803E0AD
:1030C000CDA18348FEF775FF284633B030BD70B5FB
:1030D0009EB00446642105A803F05DFFCF48006858
:1030E000002834D1CEA1204603F0AFFF642105A80B
:1030F00003F051FFD048D1A1026805A804F0E6FE14
:1031000005A9204603F052FF642105A803F043FF00
:10311000D048D1A1026805A804F0D8FE05A9204630
:1031200003F044FF642105A803F035FFD048D1A186
:10313000026805A804F0CAFE05A9204603F036FF80
:10314000642105A803F027FFD1480278A2E1C0E17D
:103150002532420025323000253246002533460014
:103160002532350025323300253236002533440020
:103170009554415D736861310000000025640A25A3
:10318000730A70726F64756374732F25730A2573E5
:103190000000000025640A25730A70726F6475636D
:1031A00074732F25732F646576696365732F257398
:1031B0000A25730076657273696F6E3D25732672FA
:1031C00065733D70726F647563747325253246258F
:1031D000732665743D2564266D6574686F643D25AE
:1031E00073267369676E3D2573000000149D000807
:1031F000434F4E4E4543540041542B434950535482
:103200004152543D22544350222C223138332E3225
:1032100033302E34302E3333222C38300D0A000058
:10322000523167354D32704A5544466E526E4E4AA1
:10323000654455784F45746A4D3068526548424937
:1032400059316C4B4E4452356447633D00000000D9
:1032500000CF9D7450383339556879676953000041
:10326000323031382D31302D3331000064320000DE
:103270005C9D00086465766963655F6964000000B1
:10328000A600002096000020C89C00084F4B0000BC
:1032900041542B434950434C4F53450D0A00000005
:1032A0004F6E654E45545F4465764C696E6B0D0AF2
:1032B0004E414D453A2025732C0950524F49443A0E
:1032C0002025732C094B45593A25730D0A0000003F
:1032D00000380140546970733A09E8BF9EE68EA534
:1032E000E68890E58A9F0D0A000000005741524E83
:1032F0003A09E8BF9EE68EA5E5A4B1E8B4A5EFBC07
:103300009AE58D8FE8AEAEE99499E8AFAF5C720AAA
:10331000000000005741524E3A09E8BF9EE68EA5D4
:10332000E5A4B1E8B4A5EFBC9AE99D9EE6B395E7A4
:103330009A84636C69656E7469640D0A000000000C
:103340005741524E3A09E8BF9EE68EA5E5A4B1E882
:10335000B4A5EFBC9AE69C8DE58AA1E599A8E5A401
:10336000B1E8B4A50D0A00005741524E3A09E8BF32
:103370009EE68EA5E5A4B1E8B4A5EFBC9AE794A8B3
:10338000E688B7E5908DE68896E5AF86E7A081E907
:103390009499E8AFAF5C720A000000005741524EAA
:1033A0003A09E8BF9EE68EA5E5A4B1E8B4A5EFBC56
:1033B0009AE99D9EE6B395E993BEE68EA528E6AF11
:1033C00094E5A682746F6B656EE99D9EE6B39529C0
:1033D0000D0A00004552523A09E8BF9EE68EA5E567
:1033E000A4B1E8B4A5EFBC9AE69CAAE79FA5E9942E
:1033F00099E8AFAF5C720A005741524E3A094D51FD
:1034000054545F5061636B6574436F6E6E65637493
:10341000204661696C65640D0A00000054000020BC
:103420007B226964223A22313233222C227061726B
:10343000616D73223A7B00004C00002022536574BA
:103440004D6F6465223A7B2276616C7565223A2560
:10345000647D2C00480000202253657454656D7013
:10346000223A7B2276616C7565223A25647D2C00B8
:10347000500000202253657457696E6479223A7BAC
:103480002276616C7565223A25647D2C000000006F
:1034900045000020F8A105A804F018FD05A9204664
:1034A00003F084FD642105A803F075FDF848027857
:1034B000F8A105A804F00AFD05A9204603F076FD51
:1034C000F9A1FB48FEF775FDFAA1204603F06EFD59
:1034D00056E0F9480068012852D11421684603F0EB
:1034E0005AFD002500200EE0F449095C302909DB73
:1034F000F249095C392905DCF0490B5C29466D1C51
:103500000DF80130401C1E28EED3684603F0E8FE9B
:103510000646EBA1204603F098FD642105A803F0C0
:103520003AFD6A46E8A105A804F0D0FC05A92046AA
:1035300003F03CFD6A46E6A1DD48FEF73AFD642152
:1035400005A803F028FDE6A105A804F0BFFC05A925
:10355000204603F02BFD642105A803F01CFDE4A127
:1035600005A804F0B3FC05A9204603F01FFDE4A163
:10357000CF48FEF71EFDE4A1204603F017FD00BF73
:10358000204603F047FDC0B21EB070BD30B5ADF5AA
:10359000077D0020839084908590869000240025EC
:1035A0004FF4007103A803F0F6FC03A8FFF78FFDAA
:1035B0000446002C1ED083A80021234603AACDE98F
:1035C0000010AFF25831AFF2743001F01AF968B957
:1035D000849A91B2839803F0DCFACCA1B448849A1F
:1035E000FEF7E7FC83A800F039FE03E0CBA1B0486A
:1035F000FEF7DFFC0DF5077D30BD70B588B00546E0
:103600000C460020049005900690079023462A4619
:10361000CAA1A748FEF7CDFC204603F0FBFC0646F6
:1036200004A80121002200923346CDE90121039034
:10363000224629460A2001F002F838B9059A91B2CB
:10364000049803F0A6FA04A800F008FE08B070BDC4
:1036500000B595B00020119012901390149003A81B
:103660000290AFF2F830AFF21443BCA238210090C0
:1036700003A804F013FC03AAC0A18D48FEF799FC2F
:1036800011A8012302AA00210090142001F0E1F901
:1036900038B9129A91B2119803F07BFA11A800F090
:1036A000DDFD15B000BD2DE9F14F88B00020079079
:1036B000069005900490039000240025089800F0DF
:1036C00015FE0446032C04D0042C7DD0092C7CD19B
:1036D000B7E0B04803A904AA07ABCDE900210290E6
:1036E00005AA06A9089801F00CFB0546002D6DD12E
:1036F000BDF810000799CDE90010BDF81430A6A15F
:103700006B48069AFEF755FC079802F021FB0290E1
:10371000B0A1029802F022FF0646AFA1029802F083
:103720001DFF0746AEA1384602F018FF8046AEA145
:10373000384602F013FF8146ADA1384602F00EFF75
:10374000824647B901F0A0FC83465A46ABA15848CF
:10375000FEF72FFC69E0ACA15548FEF72AFCF068A3
:1037600004280CD1D6F810B01D225946534803F056
:103770003BFC524AA9A14E48FEF71BFC00BFD8F8FB
:103780000C00032803D1A749D8F814000860D9F821
:103790000C00032803D1A449D9F814000860DAF812
:1037A0000C00032803D1A149DAF8140008604FF493
:1037B000FA70FFF700F9029801F0C8FC01239B485A
:1037C0000C210268184602E035E048E02EE0FEF7E2
:1037D000D4FE02239448082102680320FEF7CDFEA0
:1037E00090490878FEF7C2FF91A201210420FEF75C
:1037F000A6FE01203049086003F086F9FFF7C6FEF7
:1038000003F082F98848006800908648036887487A
:1038100089A102682648FEF7CCFB834B1A78814BBE
:103820001978824B1878FEF7D1FC03E089A1204873
:10383000FEF7BFFB16E0089801F063FB00B911E04A
:1038400000BF089801F084F920B98BA11848FEF751
:10385000B0FB03E08FA11648FEF7ABFB02E04FF090
:10386000FF3500BF00BF03F04FF9681C10B909B065
:10387000BDE8F08F1CE100002268756D69223A7B7B
:103880002276616C7565223A25647D2C000000006B
:10389000440000202274656D70223A7B2276616CB0
:1038A0007565223A25647D0046696C6C310D0A000D
:1038B000003801407D7D0000540000207800002089
:1038C0007B226964223A0000222573220000000056
:1038D000707572655F6E756D3A25730D0A00000094
:1038E0002C22636F6465223A3230302C00000000D5
:1038F000226D7367223A22737563636573732200C6
:1039000046696C6C320D0A007D00000053656E64E0
:103910002025642042797465730D0A005741524E88
:103920003A094544505F4E65774275666665722078
:103930004661696C65640D0A000000005075626C98
:1039400069736820546F7069633A2025732C204D89
:1039500073673A2025730D0A000000002473797301
:103960002F25732F25732F7468696E672F70726F00
:1039700070657274792F73657400000053756273FB
:10398000637269626520546F7069633A2025730D14
:103990000A00000058000020746F7069633A202507
:1039A000732C20746F7069635F6C656E3A202564B8
:1039B0002C207061796C6F61643A2025732C207023
:1039C00061796C6F61645F6C656E3A2025640D0AE5
:1039D0000000000069640000706172616D73000096
:1039E0005365744D6F64650053657454656D700064
:1039F00053657457696E6479000000004552524F58
:103A0000523A2573000000004F4B4B4B4B4B4B4B36
:103A10004B2121212121210D0A00000069643D254F
:103A2000730D0A004C0000204800002050000020C8
:103A30007665723A312E300073706565643A25649C
:103A40002C6D6F64653A25642C74656D703A25643D
:103A50000D0A00005741524E3A094D5154545F55DA
:103A60006E5061636B65745075626C697368204554
:103A700072720D0A00000000546970733A094D51CA
:103A8000545420537562736372696265204F4B0D05
:103A90000A000000546970733A094D515454205380
:103AA0007562736372696265204572720D0A000067
:103AB0000F2C01D0032C05D1069804F0ADFF079818
:103AC00004F0AAFF00BF09B0BDE8F08FF0B50446CE
:103AD000142C06DA01EA020523EA010685EA06004B
:103AE00019E0282C04DA81EA020787EA030012E0D1
:103AF0003C2C0ADA01EA020501EA030787EA050617
:103B000002EA030787EA060005E0502C03DA81EA9F
:103B1000020787EA0300F0BD0146142901DAF748DD
:103B20000AE0282901DAF64806E03C2901DAF548DE
:103B300002E0502900DAF4487047F0B5024601204F
:103B40009040441EE54301EA050020FA02F601EA2E
:103B50000400C2F1200C00FA0CF746EA07031846ED
:103B6000F0BDF0B50246C2F1200C012000FA0CF0C5
:103B7000441EE54301EA040000FA02F601EA0500EA
:103B8000C2F1200C20FA0CF746EA07031846F0BDF4
:103B90002DE9F04FDDB007468A4615460AF10809BF
:103BA00009F101094FEACA005B9048464FEAE97102
:103BB00009EB91618E1148464FEAE97109EB916179
:103BC0008911A9EB81115C915C98002800DD761CBD
:103BD0005C98C0F140008144D04604E0002007F822
:103BE000080008F10108B8EB861FF7DB802007F812
:103BF0000A000121C1EB86115B9878545B98C0F3F1
:103C000007200221C1EB861178545B98C0F307406E
:103C10000321C1EB861178545B98000E0421C1EB9F
:103C200086117854B9485690B9485790B748C04360
:103C30005890B748C0435990B6485A904FF0000882
:103C4000A5E0002452E0102C32D24FEA881000EB9D
:103C50008400385C000601A941F824004FEA88106E
:103C600000EB8400401C385C51F824104FF4803283
:103C700002FB001001A941F824004FEA881000EB74
:103C80008400801C385C51F82410121202FB0010D2
:103C900001A941F824004FEA881000EB8400C01C01
:103CA000385C51F82410084401A941F824001CE0B4
:103CB000502C1AD2E01E01AA52F82000A4F10802EA
:103CC00001AB53F822205040A4F10E0253F82220F9
:103CD0005040A4F1100253F8222080EA0201012092
:103CE000FFF73FFF01A941F82400641C502CAAD320
:103CF0005698559057985490589853905998529078
:103D00005A98519000242AE005205599FFF729FF81
:103D100083462046529B539A5499FFF7D7FE584446
:103D2000009051990098084400902046FFF7F4FE57
:103D300000990844009001A850F824100098084405
:103D4000009052985190539852901E205499FFF72A
:103D500008FF53905598549000985590641C502C2F
:103D6000D2D3569955980844569057995498084478
:103D70005790589953980844589059995298084424
:103D800059905A99519808445A9008F10108B04541
:103D9000FFF657AF5698E8705698000AA8705698E4
:103DA000000C68705698000E28705798E871579864
:103DB000000AA8715798000C68715798000E287176
:103DC0005898E8725898000AA8725898000C6872BF
:103DD0005898000E28725998E8735998000AA873E9
:103DE0005998000C68735998000E28735A98E87413
:103DF0005A98000AA8745A98000C68745A98000ED1
:103E000028745DB0BDE8F08F2DE9F04FADF5B36DCE
:103E100007460E4692469846DDF8BC9540254FF081
:103E2000360B5C20CDF89405002404E000200DF250
:103E300054510855641C402CF8DBAE421DD0AE42F4
:103E40000FDD4A4631463846FFF7A2FE002405E062
:103E500019F804000DF254510855641C142CF7DBBA
:103E600014E0AE4212DA002404E0385D0DF2545141
:103E70000855641CB442F8DB08E0002404E0385D17
:103E80000DF254510855641CAC42F8DB002408E0E4
:103E90000DF25450005D80EA0B000DF214510855EC
:103EA000641C402CF4DB002405E00DF21450005D8E
:103EB00015A90855641C402CF7DB002406E01AF80D
:103EC000041015AA04F140001154641C4445F6DBAB
:103ED00008EB05014A4615A8FFF75AFE002409E041
:103EE0000DF25450005DDDF8941548400DF2D441B8
:103EF0000855641C402CF3DB002413E09979825AA6
:103F0000A1EBD96EDCBC1B8FD6C162CA0123456709
:103F100089ABCDEFF0E1D2C30DF2D440005D0DF8D6
:103F20000400641C402CF7DB002406E019F80410A0
:103F300004F140000DF80010641C142CF6DB4A4616
:103F400005F114016846FFF723FE0DF5B36DBDE8DA
:103F5000F08F00002DE9F04F07468946099C0025A7
:103F60000026AC46A846AA4600211CB900201060D5
:103F7000BDE8F08F0320B4FBF0F04FF0030BB4FB6F
:103F8000FBFE0BFB1E4BBBF1000F02D04FF0010BF1
:103F900001E04FF0000B00EB0B06B6F1804F05D3AC
:103FA0004FF0FF3010606FF02900E1E7B600701CA1
:103FB000814500D327B9701C10606FF02900D7E746
:103FC0000320B4FBF0F000EB40060025394629E061
:103FD00013F801CB13F8018B13F801AB87484FEAB4
:103FE0009C0B10F80B0001F8010B4FEA0C1000EBD2
:103FF000281000F03F00DFF804B21BF8000001F8C1
:10400000010B4FEA880000EBAA1000F03F001BF8FC
:10401000000001F8010B0AF03F001BF8000001F856
:10402000010BED1CB542D3D3A5422DD213F801CB21
:10403000681CA04202D213F8010B00E00020804669
:104040006E48CCF3850B10F80B0001F8010B4FEA1A
:104050000C1000EB281000F03F00DFF8A0B11BF8B7
:10406000000001F8010B681CA04207D23F2000EAC3
:1040700088001BF8000001F8010B02E03D2001F868
:10408000010B3D2001F8010BC81B106000200870D7
:1040900000BF6DE72DE9F047074689469046DDF8F9
:1040A00020C0002100220024002600250020044614
:1040B0000246014645E0002601E0491C761C6145A8
:1040C00002D2585C2028F8D0614500D13BE0ACEB2F
:1040D0000100022807D3585C0D2804D1481C185C45
:1040E0000A2800D12CE0585C0A2800D128E01EB133
:1040F0006FF02B00BDE8F087585C3D2806D1601CAE
:104100000446022802D96FF02B00F3E7585C7F28A1
:1041100006DC585CDFF8E8A01AF800007F2802D11E
:104120006FF02B00E6E7585CDFF8D4A01AF8000027
:10413000402803DA14B16FF02B00DBE7521C00BFFC
:10414000491C6145B7D300BF1AB90020C8F8000068
:10415000D0E7D00800EB40004FEA400A02F0070029
:1041600000EB40004000C01D0AEBD002121B0FB153
:10417000914504D2C8F800206FF02900BAE7032463
:104180000020064602463D4631E018780D2805D04D
:1041900018780A2802D01878202800D125E018784D
:1041A000DFF85CA01AF80000402801D1012000E0EF
:1041B0000020241A1878DFF848A01AF8000066F3E7
:1041C0009F100646501C024604280DD1002214B14F
:1041D000300C05F8010B012C02D9300A05F8010B4F
:1041E000022C01D905F8016B00BF491E5B1C002998
:1041F000CBD1E81BC8F8000000207BE7E89A000854
:10420000289B000870B504460E460025206898B922
:1042100001202073304604F027FC20602068E0B1C4
:1042200000206060A66003E00020216848556D1CF6
:10423000A068A842F8D810E00220207303E0002014
:10424000216848556D1CA068A842F8D8002060601D
:10425000A068B04201D20020206070BD10B50446B5
:10426000207B012802D1206804F0D6FB00202060CA
:104270006060A060207310BD0246002301230DE0A2
:1042800002F07F000870D2092AB1087840F080005F
:104290000870491C01E0184670475B1C042BEFDDD9
:1042A0004FF0FF30F8E7F0B504460D4626460123EF
:1042B00000201060002114E0775C07F07F07106891
:1042C00007FB03001060705C00F0800008B9481C18
:1042D000F0BDDB01B3F5001F02D36FF00100F7E77B
:1042E000491CA942E8DB4FF0FF30F1E7F8B504467E
:1042F000FF2720780511012D01DB0E2D01DD384649
:10430000F8BD032D24D1002000906A460421601CD2
:10431000FFF7C9FF2044461C0098022803D32078E9
:1043200000F0010008B1FF20EAE77078317840EA38
:104330000120801C0099884201D9FF20E0E7F8A104
:10434000B01C02F03FFE08B10F2700E0032700E099
:104350002F463846D4E72DE9FF4F83B082468B467F
:104360009146159C0025002002900F270190484699
:1043700002F050FE0FFA80F8B9F1000F03D10120CE
:1043800007B0BDE8F08F08F10200384487B21098FA
:1043900008B145F00205129878B145F0040512986D
:1043A00002F038FEC0B20290139802F033FE0146CC
:1043B0000298001D0844384487B2119820B10128A2
:1043C00004D0022808D104E000BF07E045F00C0546
:1043D00004E045F0140501E00220D1E700BF149885
:1043E00008B145F02405BAF1000F02D0BBF1000F6F
:1043F00001D10320C4E745F0C005504602F00AFE93
:104400000646584602F006FE3044001D384487B286
:1044100039462046FFF7F6FE206808B90420AFE7CA
:104420003946206802F0B7FD10216268501C6060B8
:1044300020688154D4E90023D118781FFFF71CFFAE
:1044400000B201900198002804DA2046FFF706FF29
:10445000052095E761680198084460600021626862
:10446000501C60602068815404216268501C6060A8
:10447000206881544D216268501C6060206881541E
:1044800051216268501C6060206881545421626828
:10449000501C6060206881546268501C6060206815
:1044A000815404216268501C6060206881546168F6
:1044B000481C6060206845540698010A6268501CD8
:1044C0006060206881540698C1B26268501C6060C8
:1044D00020688154C8F307216268501C606020681E
:1044E00081546268501C6060206800F80280D4E942
:1044F000001288184246494602F093FD6068404425
:10450000606005F00400B8B30026139808B986A0CF
:104510001390129802F07EFD86B2310A6268501C38
:104520006060206881546268501C60602068865416
:10453000D4E9001288183246129902F072FD6068C0
:1045400030446060139802F065FD86B2310A6268FB
:10455000501C6060206881546268501C6060206854
:104560008654D4E9001288183246139902F059FD96
:1045700060683044606000BF05F08000C8B15046FC
:1045800002F048FD86B2310A6268501C6060206803
:1045900081546268501C606020688654D4E900121F
:1045A00088183246514602F03CFD60683044606035
:1045B00000BF05F04000C8B1584602F02BFD86B29E
:1045C000310A6268501C6060206881546268501C27
:1045D000606020688654D4E9001288183246594633
:1045E00002F01FFD60683044606000BF0020C7E635
:1045F00010B5044602212046FFF704FE206808B9E2
:10460000012010BDE0216268501C60602068815468
:1046100000216268501C6060206881540020F0E72F
:1046200001464878022801D001207047887810B1EF
:104630008878012801D1C878F7E7FF20F5E72DE950
:10464000FF4F83B0834617469946139C00250026EA
:104650000020029001908046BBF1000F03D10120A1
:1046600007B0BDE8F08F00260AE00498805D23289B
:1046700003D00498805D2B2801D10220F0E7761C3E
:104680000498805D0028F0D148F03008119808B1F6
:1046900048F0010806EB0900851C109820B101289C
:1046A00004D002280AD105E000BF09E048F0020862
:1046B000AD1C05E048F00408AD1C01E00320CFE785
:1046C00000BF67B33878022821D14FF0000A00BF3D
:1046D00050460AF1010A385C7D28F9D1AAF1030A93
:1046E0000AF1070002900298A9EB000AE81CA0EB6F
:1046F0000A012046FFF786FD206808B90420AFE7CD
:10470000EA1CA2EB0A01206802F045FC1FE0691DCB
:104710002046FFF777FD206840B90420A0E70AE0B3
:10472000246372657100000000000000691D2068AC
:1047300002F031FC0BE0691D2046FFF763FD2068A5
:1047400008B904208CE7691D206802F024FC616828
:10475000481C6060206800F80180D4E900028118DC
:104760002846FFF789FD01900198002804DA2046C9
:10477000FFF774FD052073E76168019808446060E5
:10478000C6F307216268501C60602068815462682B
:10479000501C606020688654D4E9001288183246A4
:1047A000049902F03EFC606830446060109860B18B
:1047B0004FEA1B216268501C606020688154626867
:1047C000501C6060206800F802B0C7B13878022839
:1047D0000BD1D4E9001288183946029A02F0C2FBC4
:1047E000616802980844606009E0D4E90012881802
:1047F0004A46394602F0B6FB6068484460600020D3
:104800002EE72DE9F04391B005460C4616461F46AB
:10481000DDE91898F248006858B92B46F1A230211A
:1048200005A8009403F03AFBF6A1F848FDF7C1FB98
:1048300016E0EB48006801280ED1F5A1F348FDF71A
:10484000B8FB2B46F5A2302105A8009403F026FB07
:104850000020E349086003E0012011B0BDE8F083C7
:1048600001200021CDE900013B46324605A9CDE9F2
:1048700002080A20FFF7E3FE08B10120EDE700205F
:10488000EBE72DE9F04F85B080460D4691460120BB
:1048900004900027002600244FF0000A404602F052
:1048A000B9FB00F10D0B584604F0DEF807461FB9BE
:1048B000049805B0BDE8F08F4246E1A1384603F008
:1048C00005FB384602F0A6FBC6B2F01D00EB050A58
:1048D000AAEB050004F0C8F8044624B9384604F0F1
:1048E0009BF80498E5E70220207000206070A67015
:1048F00032463946E01C02F035FB290EF01C2154EB
:10490000C5F30741301D2154C5F30721701D215403
:10491000B01D255401200021CDE900015346224657
:10492000CBA1CDE902090A20FFF789FE08B90020D2
:104930000490384604F070F8204604F06DF80498AE
:10494000B7E72DE9F84380460C4615461E462F2151
:1049500008F1060002F054FB07460020009017B94A
:104960000120BDE8F8837F1C6A46042108F101009C
:10497000FFF799FC252004F077F82060206808B93B
:104980000220EEE72521206802F005FB24223946AB
:10499000206802F0E7FA243700982C3830803188FC
:1049A000481C04F061F82860286820B9206804F0E9
:1049B00033F80320D5E73288511C286802F0EBFA5F
:1049C00032883946286802F0CDFA0020C9E72DE97F
:1049D000FF5F07460D469046384602F01BFB86B245
:1049E000284602F017FB1FFA80FA4FF00009F01D6D
:1049F00004F03AF804461CB9012004B0BDE8F09F69
:104A0000F11D204602F0C7FA92A00168216080885B
:104A1000A08032463946204602F003FB284602F0C9
:104A2000F9FA83460120002100915B462A46CDE930
:104A30000208019121460A20FFF701FE10B94FF04C
:104A4000000901E04FF00109204603F0E5FF484668
:104A5000D3E72DE9FF5F8046174699460E9C002656
:104A6000B246B3460025B8F1000F03D1012004B0CF
:104A7000BDE8F09F0BE057F8250008B90220F6E7E3
:104A800057F8250002F0C6FA0644681CC5B24D4529
:104A9000F1DB09EB4900801C00EB060A0AF1050175
:104AA0002046FFF7AFFB206808B90320DFE782212B
:104AB0006268501C606020688154D4E9000281184B
:104AC0005046FFF7D9FB0FFA80FBBBF1000F04DA69
:104AD0002046FFF7C3FB0420C9E7606858446060C4
:104AE0004FEA18216268501C606020688154626837
:104AF000501C6060206800F80280002524E057F810
:104B0000250002F087FA0646C6F307216268501CAA
:104B10006060206881546268501C60602068865420
:104B2000D4E90023D01857F82510324602F079FA5C
:104B30006068304460600198C1B26268501C606077
:104B400020688154681CC5B24D45D8DB00208EE733
:104B50000146FF208A78A2B9CA78142A11D10A79AD
:104B600032B1012A05D0022A04D0802A06D103E0FE
:104B700000BF00BF002003E0012001E0022000BFD1
:104B800000BF70472DE9F05F80460F4691461C46F6
:104B90000026B246B3460025B8F1000F02D101202D
:104BA000BDE8F09F0BE057F8250008B90220F7E7B1
:104BB00057F8250002F02EFA0644681CC5B24D4590
:104BC000F1DB022000EB490000EB060A0AF10501C7
:104BD0002046FFF717FB206808B90320E0E73DE017
:104BE00054000020247379732F25732F25732F749D
:104BF00068696E672F70726F70657274792F706F4D
:104C000073740000706F73740D0A00000038014067
:104C10007365745F7265706C790D0A002473797323
:104C20002F25732F25732F7468696E672F70726F2D
:104C300070657274792F7365745F7265706C79003A
:104C40007B2264735F6964223A222573227D00000F
:104C50002464700024637273702F0000A2216268C4
:104C6000501C606020688154D4E9000281185046CD
:104C7000FFF702FB0FFA80FBBBF1000F04DA2046BE
:104C8000FFF7ECFA04208BE76068584460604FEA55
:104C900018216268501C6060206881546268501C52
:104CA0006060206800F8028000251DE057F82500AC
:104CB00002F0B0F90646C6F307216268501C606036
:104CC000206881546268501C606020688654D4E972
:104CD0000023D01857F82510324602F0A2F9606878
:104CE00030446060681CC5B24D45DFDB002057E7EB
:104CF000014601208A781AB9CA781E2A00D10020FC
:104D000070472DE9FC5F81460D4614461E46DDE9DD
:104D10000C8B99F8000000F00F0A002001900AF0B7
:104D200008000090CAF341008BF8000001AA04219A
:104D300009F10100FFF7B7FA4844471C019802281F
:104D400002D30AF0010010B1FF20BDE8FC9F787883
:104D5000397840EA012020802088801C019988420F
:104D600001D9FF20F1E7AFF24861B81C02F02AF93F
:104D700008B10F20E9E79BF8000020B101283DD0E1
:104D8000022877D13BE0009808B1FF20DDE72188B9
:104D9000481C03F069FE2860286808B9FF20D4E7A2
:104DA0002288511C286802F0F6F82288B91C28686D
:104DB00002F0D8F80198801E2188401AA8F8000057
:104DC000B8F80010481C03F04FFE3060306820B97E
:104DD000286803F021FEFF20B7E7B8F80020511C37
:104DE000306802F0D8F8B8F80020B4F800C0BB1C56
:104DF0000CEB0301306802F0B5F84FE000BF2088EB
:104E0000801C0199884201D9FF209EE72088C01CA0
:104E1000395C2088801C385C41EA00210E980180B2
:104E20000E9808B9FF2090E72188481C03F01CFE6B
:104E30002860286808B9FF2087E72288511C286865
:104E400002F0A9F82288B91C286802F08BF80198B2
:104E5000001F2188401AA8F80000B8F80010481C6C
:104E600003F002FE3060306828B9286803F0D4FDF2
:104E7000FF206AE710E0B8F80020511C306802F00B
:104E80008AF8B8F80020B4F800C03B1D0CEB030111
:104E9000306802F067F801E0FF2056E700BF2B21E1
:104EA000284602F0ADF820B92321284602F0A8F8E0
:104EB00008B1FF2049E7002047E770B505460C46DA
:104EC00004212046FFF79EF9206808B9012070BD33
:104ED00040216268501C6060206881540221626831
:104EE000501C60602068815429126268501C606008
:104EF000206881546268501C6060206885540020DE
:104F0000E5E701464878022801D0012070478878FB
:104F100020B9C8780A2801D10020F7E70120F5E779
:104F200070B505460C4604212046FFF76BF9206852
:104F300008B9012070BD50216268501C6060206873
:104F4000815402216268501C6060206881542912DB
:104F50006268501C6060206881546268501C606008
:104F6000206885540020E5E701464878022801D0F2
:104F700001207047887820B9C8780A2801D100201C
:104F8000F7E70120F5E770B505460C4604212046F9
:104F9000FFF738F9206808B9012070BD6221626806
:104FA000501C60602068815402216268501C60605F
:104FB0002068815429126268501C60602068815406
:104FC0006268501C6060206885540020E5E7024656
:104FD0005078022801D0012070479078B0EB112F53
:104FE00005D1D078CBB2984201D10020F4E701205E
:104FF000F2E770B505460C4604212046FFF702F99A
:10500000206808B9012070BD70216268501C606082
:105010002068815402216268501C606020688154BD
:1050200029126268501C6060206881546268501CBC
:105030006060206885540020E5E701464878022832
:1050400001D001207047887820B9C8780A2801D19A
:105050000020F7E70120F5E710B5044602212046BD
:10506000FFF7D0F8206808B9012010BDC0216268A0
:10507000501C60602068815400216268501C606090
:10508000206881540020F0E7FE480068704770B542
:1050900004460D462CB9AC4201D0012070BD002061
:1050A000FCE70DB90120F9E705E0207808B90020F8
:1050B000F4E7641C6D1C207801F04EFF064628784A
:1050C00001F04AFF8642F0D0207801F045FF064605
:1050D000287801F041FF301AE0E770B50446204619
:1050E00001F098FF451C2846E74909688847061ED5
:1050F00000D170BD2A462146304601F033FF3046CC
:10510000F7E730B9E149E04A1160E149E14A11604D
:105110007047016809B1016800E0DC49DA4A1160B2
:10512000416809B1416800E0D949DA4A116000BF1D
:10513000EEE710B52820D4490968884704461CB119
:105140002821204601F027FF204610BD70B50446F7
:1051500022E02568A08900F4807020B9A06810B111
:10516000A068FFF7F3FFA08900F4807028B92069D8
:1051700018B1C849206909688847A08900F40070FF
:1051800028B9206A18B1C349206A096888472046AF
:10519000C049096888472C46002CDAD170BD2DE93A
:1051A000F04F8BB083468A46002004460546002611
:1051B000B94F0021884689460990012008909AF845
:1051C00000002D2802D1B54F0AF1010A9AF800001B
:1051D000302801D10AF1010A9AF80000312822DBB7
:1051E0009AF8000039281EDC00BF1AF8011BA1F153
:1051F000300002F09BF90022A94BCDE906012046C0
:10520000294602F021F9CDE90401DDE9062302F087
:1052100074F804460D469AF80000302803DB9AF82B
:1052200000003928E1DD9AF800002E2830D19AF8E4
:10523000010030282CDB9AF80100392828DC0AF11B
:10524000010A00BF1AF8011BA1F1300002F06EF94B
:105250000022934BCDE906012046294602F0F4F8DE
:10526000CDE90401DDE9062302F047F804460D46C6
:105270000022894B4046494602F0E0F880468946C4
:105280009AF80000302803DB9AF800003928D9DDAD
:105290009AF80000652803D09AF80000452823D129
:1052A0000AF1010A9AF800002B2802D10AF1010A3A
:1052B00008E09AF800002D2804D14FF0FF30089044
:1052C0000AF1010A08E01AF8010B3038099901EBDC
:1052D000810100EB410009909AF80000302803DBBF
:1052E0009AF800003928EEDDDDE9082101FB02F023
:1052F00002F01CF942464B46CDE9000101F0FDFFEA
:1053000002460B46CDE902010020654903F0E2FBAD
:1053100022462B46CDE906013046394602F094F884
:10532000CDE90401DDE9062302F08EF804460D46BE
:10533000CBE906452046294602F009F9CBF81400CE
:105340000320CBF80C0050460BB0BDE8F08F0146AF
:10535000491E41EA610141EAA10141EA211141EA04
:10536000212141EA2141481C70472DE9F0410446C2
:105370000E460CB1206810B90020BDE8F081A0688D
:1053800006446068B04203DBA16820680844F4E783
:105390003046FFF7DCFF074638463B490968884737
:1053A00005463DB93B492068096888470020606090
:1053B0002060E2E725B12846D4E9001201F0D2FDD1
:1053C000344920680968884767602560A0682844D8
:1053D000D3E770B504460CB1206808B9002070BD51
:1053E000A16820684518284601F014FEA168084409
:1053F000F5E72DE9FC4782460E464FF00009DAE951
:105400000645002213462046294602F0D3F813D160
:105410002EB102213046FFF7A8FF814604E00220AA
:105420001949096888478146B9F1000F03D01DA0CA
:105430000088A9F800009FE0DAF8140002F076F87E
:10544000074622462B4601F0F9FF21F000410022D9
:10545000154BCDE9000102F0ADF83ED8134A144BCC
:105460002046294602F0A6F837D80022114B2046E4
:10547000294602F0B7F830D806B315213046FFF7B9
:1054800074FF19E05C00002060000020698A0008B9
:10549000198A0008640000200000F03F0000F0BFFF
:1054A00000002440300000000000B03C0000C0FFBD
:1054B000FFFFDF410000E0C1814604E01520FA490A
:1054C000096888478146B9F1000F55D0F7A14846D1
:1054D000DAF8142002F0FAFC4EE02EB140213046FA
:1054E000FFF743FF814604E04020EF490968884701
:1054F0008146B9F1000F3FD02046294603F01EFA3D
:10550000074622462B4601F099FF21F00041002278
:10551000E74BCDE9000102F04DF80FD825F000412E
:105520002746E44AE44B384602F044F806D22246C5
:105530002B46E2A1484602F0C9FC1DE025F00041DF
:105540002746E04AE04B384602F034F807D325F00E
:1055500000410022DD4B384602F044F806D22246D4
:105560002B46DBA1484602F0B1FC05E022462B4663
:10557000D8A1484602F0AAFC4846BDE8FC8701468F
:1055800000220878302806DB0878392803DC087800
:105590003038024415E00878412806DB08784628B0
:1055A00003DC0878373802440BE00878612806DB12
:1055B0000878662803DC08785738024401E00020A8
:1055C00070471201491C0878302806DB0878392812
:1055D00003DC08783038024415E00878412806DBFF
:1055E0000878462803DC0878373802440BE008784E
:1055F000612806DB0878662803DC087857380244FF
:1056000001E00020DCE71201491C0878302806DBA5
:105610000878392803DC08783038024415E0087827
:10562000412806DB0878462803DC0878373802442E
:105630000BE00878612806DB0878662803DC087828
:105640005738024401E00020BAE71201491C0878EB
:10565000302806DB0878392803DC08783038024423
:1056600015E00878412806DB0878462803DC08782E
:10567000373802440BE00878612806DB0878662892
:1056800003DC08785738024401E0002098E7104610
:1056900096E72DE9F05F8346884608F1010400276C
:1056A00098F80000222805D08B48C0F80080002020
:1056B000BDE8F09F04E014F8011B5C2900D1641CD4
:1056C0002078222804D0207810B1781C071EF2D14F
:1056D000781C7549096888478146B9F1000F01D1E6
:1056E0000020E5E708F101044D469EE020785C28A3
:1056F00004D014F8010B05F8010B96E0641C207827
:10570000722818D006DC622809D066280BD06E28D3
:105710007ED10CE0742812D07528F9D113E008204E
:1057200005F8010B7FE00C2005F8010B7BE00A2057
:1057300005F8010B77E00D2005F8010B73E0092057
:1057400005F8010B6FE0601CFFF719FF0646241DEA
:10575000B6F55C4F02D3B6F5604F00D306B962E0F0
:10576000B6F5584F1CD3B6F55C4F19D260785C285B
:1057700002D1A078752800D055E0E01CFFF7FFFEAD
:105780008246A41DBAF55C4F02D3BAF5604F00D330
:1057900049E0C6F30901504661F39F2000F58036C9
:1057A0000427802E01D2012708E0B6F5006F01D250
:1057B000022703E0B6F5803F00D203273D44012FC6
:1057C00020D0022F15D0032F0AD0042F24D106F0A9
:1057D000BF0040F08001681E05460170B60900BF99
:1057E00006F0BF0040F08001681E05460170B60952
:1057F00000BF06F0BF0040F08001681E0546017042
:10580000B60900BF3548C05D3043C1B2681E00E034
:1058100005E00546017000BF00BF3D4403E020786D
:1058200005F8010B00BF00BF641C2078222803D0BC
:10583000207800287FF45AAF002028702078222892
:1058400000D1641CCBF810900420CBF80C0020464B
:105850002EE72DE9F05F804689460027BB46454686
:1058600011E02878002802DD2878202805DB287838
:10587000222802D028785C2801D1012000E00020F5
:1058800040EA0B0B6D1C28780028EAD1BBF1000F11
:105890003ED1A5EB0807B9F1000F21D0F91C48460D
:1058A000FFF763FD064620E060000020256400004D
:1058B0000000B03C44F3C2E4E4E9634C252E3066BA
:1058C000000000008DEDB5A0F7C6B03E65CDCD411E
:1058D00025650000256600005C000020A89B0008EC
:1058E000F81CFD4909688847064616B90020BDE83E
:1058F000F09F3446222004F8010B4146204601F077
:10590000A4FB2220E0550021781C21543046EEE70C
:10591000B8F1000F16D1B9F1000F05D003214846A8
:10592000FFF723FD064604E00320EB49096888479A
:1059300006460EB90020DAE7E8A1304601F085FB03
:105940003046D4E745460BE05146E5A001F058FB50
:1059500008B17F1C03E0BAF1200F00DA7F1D6D1C37
:1059600095F800A0BAF1000F02D0781C071EEBD109
:10597000B9F1000F05D0F91C4846FFF7F6FC0646C2
:1059800004E0F81CD4490968884706460EB900208F
:10599000ADE734464546222004F8010B47E028785D
:1059A0001F280ADD2878222807D028785C2804D010
:1059B00015F8010B04F8010B39E05C2004F8010B29
:1059C00015F8011B8A460C2919D006DC082912D0CB
:1059D000092920D00A2922D115E00D2917D0222922
:1059E00005D05C291BD15C2004F8010B1EE02220AD
:1059F00004F8010B1AE0622004F8010B16E066209F
:105A000004F8010B12E06E2004F8010B0EE0722086
:105A100004F8010B0AE0742004F8010B06E052467A
:105A2000B1A1204602F052FA641D00BF00BF2878E1
:105A30000028B4D1222004F8010B002004F8010B47
:105A4000304654E770B504460D4629462069FFF7F5
:105A500000FF70BD00E0401C20B1017811B1017859
:105A60002029F8DD70472DE9F04706460C462078DE
:105A70007B2804D09E4804600020BDE8F087062003
:105A8000F060601CFFF7E6FF044620787D2801D116
:105A9000601CF2E7FFF74DFB0546B060B06808B93F
:105AA0000020EAE72046FFF7D5FF8046414628461A
:105AB000FFF7EFFD0746FFF7CDFF04460CB90020C6
:105AC000DBE7286928620020286120783A2803D083
:105AD000874804600020D0E7601CFFF7BBFF8046CA
